:04000000B4EF0AF05F
:1000080000C01AF001C019F002C018F003C017F0C0
:1000180004C016F005C015F0E1CF21F0E2CF22F0C0
:10002800E9CF1FF0EACF20F0F5CF1EF0F8CF1BF094
:10003800F7CF1CF0F6CF1DF01BEC0AF01EC0F5FF41
:100048001BC0F8FF1CC0F7FF1DC0F6FF1AC000F068
:1000580019C001F018C002F017C003F016C004F070
:1000680015C005F01FC0E9FF20C0EAFF21C0E1FF6D
:0600780022C0E2FF1100AE
:10007E0083C04BF084C04CF085C04FF086C050F06A
:10008E00800E00018711006E008000C04EF012003D
:10009E00000E056E040E066E83C003F0000E046E95
:1000AE0003360436039003360436039084C000F002
:1000BE00000E016E003601360090005003260150EE
:1000CE00042203C001F004C002F001360190023692
:1000DE0001360190023601C003F002C004F0043272
:1000EE000332049E04BC048E04320332049E04BC0C
:1000FE00048E03C000F004C001F0003600900136FB
:10010E00003600900136055000260650012200C030
:10011E0005F001C006F000C0E1FF01C0E2FFE69E5F
:10012E0000018451000A12E183C000F0000E016E3E
:10013E00003600900136510E0024E16E000E0120B3
:10014E00E26E05C0E6FF06C0E6FF11D083C000F0E8
:10015E00000E016E0036009001363C0E0024E16E5A
:10016E00000E0120E26E05C0E6FF06C0E6FF05C0E8
:10017E00E1FF06C0E2FFE69C040E0524E16E000ED0
:08018E000620E26EE68C12006F
:0E019600800E00018311006E00C04EF01200BA
:1001A40083C04BF084C04CF085C04DF086C04FF046
:1001B40087C050F0800E00018811006E00C04EF020
:0201C400120027
:1001C60020C401F01F0E01160150010A01E08BD078
:1001D60004012451000A01E086D02151060A38E1C3
:1001E6002DD03050010A13E1380E0001836F160E30
:1001F600846F000E856F120E8327000E84238523DD
:10020600090E866F000E876F400E886FC8DF20D0FC
:100216003050010A0EE10001830E836F160E846FC3
:10022600000E856F210E866F000E876F400E886F59
:10023600B6DF0ED00001836BABDF0AD00401235179
:10024600210ACFE02351220AE3E02351230AF2E0F8
:1002560020C401F0600E0116050E006E005004E089
:100266000132019EFF0FFBD70150010A01E03BD08E
:1002760027D039D038D05F0E0001836F000E846F0F
:10028600010E856F000E866F400E876FF5DE2BD050
:100296000001836B7DDF23C45FF025D00001600E73
:1002A600836F000E846F010E856F000E866F876B5D
:1002B600E3DE19D00001836B6BDF22C460F013D03C
:1002C60004012151010AD5E02151090AD3E0215147
:1002D600020AD1E021510A0ADBE02151030ADEE0DD
:0802E60021510B0AE7E01200B0
:1002EE0000017F51000A12E07EC000F0000E016E88
:1002FE000036009001363C0E0024E96E000E0120FF
:10030E00EA6EEECF04F0EECF05F011D07EC000F015
:10031E00000E016E003600900136510E0024E96E7B
:10032E00000E0120EA6EEECF04F0EECF05F0020EC5
:10033E000424E16E000E0520E26E80C0E6FF81C04F
:10034E00E6FF010E0424E16E000E0520E26E82C06F
:10035E00E6FF04C0E9FF05C0EAFFEECF00F004C0DF
:10036E00E1FF05C0E2FF400E0014E66E04C0E9FF97
:10037E0005C0EAFFEECF00F004C0E1FF05C0E2FFCA
:10038E00880E0010E66E7F51000A1BE07EC000F062
:10039E00000E016E0036009001363C0E0024026EF7
:1003AE00000E0120036E02C0E9FF03C0EAFF040E37
:1003BE00EE18006E02C0E1FF03C0E2FF00C0E6FFD0
:1003CE001AD07EC000F0000E016E0036009001368D
:1003DE00510E0024026E000E0120036E02C0E9FFD2
:1003EE0003C0EAFF040EEE18006E02C0E1FF03C068
:1003FE00E2FF00C0E6FF04C000F005C001F01200ED
:10040E00700EE16E0F0EE26E00017E51E126D8B045
:10041E00E22A7FC0E6FF7FA504D07EC083F0846B06
:10042E0037DE7FA305D07EC083F0010E846F30DEF1
:02043E001200AA
:10044000245215E0010E00017E6F1E0E7F6FDFDF6C
:10045000010E7E6F7F6B31C080F032C081F0400EA4
:10046000826F45DF00C040F001C041F014D00001B0
:10047000010E7E6F1E0E7F6FCADF010E7E6F7F6BD7
:1004800031C080F032C081F0400E826F30DF00C09A
:0804900040F001C041F0120030
:08049800245201E094DE120081
:1004A0000B6A0A6A096A00500402F4CF09F0F3CF1C
:1004B00008F001500502F4CF0BF0F3CF0AF0005022
:1004C0000502F3500926F4500A22E86A0B22015073
:1004D0000402F3500926F4500A22E86A0B2208C0ED
:1004E00000F009C001F00AC002F00BC003F01200D6
:1004F00078C002F079C003F07BC000F07CC001F04E
:10050000010E00017B5F000E7C5B0050011009E0D2
:1005100002C0E1FF03C0E2FF7AC0E6FF024A032AFD
:04052000EBD7120003
:100524000CD08CDF3CD03BD0B5DF39D038D037D0BD
:1005340036D035D0000033D032D0000E0001791906
:1005440002E1010E7819EDE0000E791902E1020EC4
:100554007819E9E0000E791902E1030E7819E4E054
:100564007951000A02E1730E7819E0E07951000A2A
:1005740002E1750E7819DBE07951000A02E1740E8C
:100584007819D6E079513F0A02E1FF0E7819D1E0DB
:100594007951000A02E1720E7819CCE0CDD7010E30
:0405A400006E1200D3
:1005A800000E505C02E1080E4F5C10E24FC003F0F1
:1005B80050C004F05850000A03E1010E586E05D0EF
:1005C8005850010A02E1020E586E04D0080E036E5C
:1005D800000E046E3CC0E1FF3DC0E2FFE6923CC065
:1005E800E1FF3DC0E2FFE6903CC0E9FF3DC0EAFF05
:1005F800EECF00F03CC0E1FF3DC0E2FF0450001028
:10060800E66E010E3C24E16E000E3D20E26E03C052
:10061800E6FF03504F5C006E04505058016E00C056
:100628004FF001C050F0280E0001616F040E626F98
:100638004EB02FD0035004102BE04BC0F6FF4CC037
:10064800F7FF4DC0F8FF0900F5CF00F061C0E1FFEA
:1006580062C0E2FF00C0E6FF614B622B010E4B2433
:10066800006E000E4C20016E000E4D20026E00C080
:100678004BF001C04CF002C04DF0010E035C006E5F
:10068800000E0458016E00C003F001C004F0D2D778
:1006980024D00350041021E04BC0E9FF4CC0EAFF0E
:1006A80061C0E1FF62C0E2FFEECFE6FF614B622B63
:1006B800010E4B24006E000E4C20016E00C04BF062
:1006C80001C04CF0010E035C006E000E0458016E70
:0C06D80000C003F001C004F0DCD71200E9
:1006E40004012051800AD8A471D0C00E4E6E64D08B
:1006F400C40E006E160E016E000E026E00C04BF0AA
:1007040001C04CF002C04DF0120E4F6E000E506E40
:100714005DD0030E006E000E016E22C404F0000EC4
:10072400056EBCDE430E0024E96E000E0120EA6E65
:10073400EECF4BF0EECF4CF0EECF4DF0020E4B244B
:10074400F66E000E4C20F76E000E4D20F86E090078
:10075400F5CF00F00900F5CF01F000C04FF001C063
:1007640050F034D0030E225D23E2030E006E000E1F
:10077400016E22C404F0000E056E90DE330E0024D8
:10078400E96E000E0120EA6EEECF4BF0EECF4CF096
:10079400EECF4DF04BC0F6FF4CC0F7FF4DC0F8FF55
:1007A4000900F5CF00F000C04FF0000E506E01D0EC
:1007B4004E6A0CD04E6A0AD02351010A99E02351A3
:0E07C400020AA7E02351030ACDE0F4D7120089
:1007D2004E8E710E0001786F0F0E796F7A6B010EDB
:1007E2007B6F000E7C6F83DE5D0E786F000E796F7B
:1007F2007A6B010E7B6F000E7C6F79DE22C430F0C3
:100802003050000A03E1100E4A6E0FD0200E4A6EDD
:10081200010E786F000E796F300E7A6F000E7B6FCB
:0C082200010E7C6F000E7D6F7CDE12006A
:10082E000401286B296B42D04E8E28815E50010A3E
:10083E00D8B4288350D04E8E4ED04E8E24BF16D0B4
:10084E0024C403F00F0E031603C000F0000E016E59
:10085E00003600900136510E0024E96E000E012084
:10086E00EA6EEECF04F0EECF05F015D024C403F0FF
:10087E000F0E031603C000F0000E016E003600903E
:10088E0001363C0E0024E96E000E0120EA6EEECF1A
:10089E0004F0EECF05F004C0E9FF05C0EAFFEECF8D
:1008AE0001F001A402D0010E286F15D020C401F072
:1008BE001F0E01160150000AB7E020C401F01F0EF2
:1008CE0001160150010AB7E020C401F01F0E0116F7
:1008DE000150020AB2E04EAE07D0280E4B6E040E47
:0A08EE004C6E4E80020E4F6E120099
:1008F80004012251010A0FE120C401F01F0E011664
:100908000150000A08E14E8E2151030A03E1010E4D
:100918005E6E01D05E6A2251000AD8A48BD020C432
:1009280001F01F0E01160150020AD8A483D024C476
:1009380001F00F0E01160150000AD8B47BD04E8E7C
:1009480024BF16D024C403F00F0E031603C000F012
:10095800000E016E003600900136510E0024E96E3B
:10096800000E0120EA6EEECF04F0EECF05F015D0B0
:1009780024C403F00F0E031603C000F0000E016E2E
:100988000036009001363C0E0024E96E000E01206E
:10099800EA6EEECF04F0EECF05F02151030A07E12D
:1009A80004C0E1FF05C0E2FF840EE66E43D024C414
:1009B80000F00F0E0016700E026E0F0E036E005040
:1009C8000226D8B0032A02C0E9FF03C0EAFFFE0EE0
:1009D800EE14006EEECF01F0FF0E011602C0E1FF2B
:1009E80003C0E2FF00C0E6FF01C0E6FF24AF11D05C
:1009F80004C0E1FF05C0E2FFE66A040E0418006EB9
:100A080000C004F004C0E1FF05C0E2FF400EE66E3E
:100A180011D004C0E1FF05C0E2FF880EE66E040EA7
:100A28000418006E00C004F004C0E1FF05C0E2FF36
:060A3800C80EE66E12007C
:100A3E0020C401F0600E0116050E006E005004E099
:100A4E000132019EFF0FFBD70150000A01E062D078
:100A5E003ED04E8E080E4A6E5DD03DDE5BD0B2DECD
:100A6E0059D0300E4B6E000E4C6E4E80010E4F6EF6
:100A7E004E8E50D0D5DE4ED038DF4CD05D0E006E8F
:100A8E00000E016E24510026D8B0012A00C04BF092
:100A9E0001C04CF04E80010E4F6E4E8E3BD04E8EEE
:100AAE005D0EE16E000EE26E2451E126D8B0E22A10
:100ABE0022C4E6FF2FD0020E0001786F000E796F70
:100ACE007A6B7B6B7C6B7D6B26DD24D023D004018F
:100ADE002151050ABEE02151060ABFE02151090A43
:100AEE00BEE02151080ABDE02151000AC3E02151A8
:100AFE00010AC2E02151030ABFE021510A0ABEE0F9
:100B0E0021510B0ACCE02151070AD5E021510C0AE4
:060B1E00DDE0DCD712004F
:100B24005B6A3CC0E1FF3DC0E2FFE66A040E3C188C
:100B3400E16E3DC0E2FF000EE21AE66A29BE299E7C
:020B440012009D
:100B46006D984EBE49D029AE28D0020E5B6E010EBE
:100B56003C24E16E000E3D20E26EE66A3CC0E1FFF9
:100B66003DC0E2FFC80EE66E010E5924E16E000E8E
:100B76005A20E26E080EE66E020E5924E16E000E51
:100B86005A20E26E280EE66E040EE66E59C0E1FFAC
:100B96005AC0E2FFC80EE66E1ED0010E5924E16E61
:100BA600000E5A20E26E080EE66E020E5924E16E21
:100BB600000E5A20E26E200EE66E040EE66E59C056
:100BC600E1FF5AC0E2FF8C0EE66E3CC0E1FF3DC07D
:100BD600E2FF840EE66E7ED029BE7CD0040120AFF3
:100BE60052D05050275D02E14F50265D04E226C4E4
:100BF6004FF027C450F0D5DC010E5B6E010E592470
:100C0600E16E000E5A20E26E080EE66E020E5924C0
:100C1600E16E000E5A20E26E200EE66E040EE66EBF
:100C260059C0E1FF5AC0E2FF800EE66E576A010E18
:100C360000016325E16E000E6421E26E080EE66E89
:100C4600020E6325E16E000E6421E26E200EE66E52
:100C5600040EE66E63C0E1FF64C0E2FF840EE66E3A
:100C6600010E576E020E3C24E16E000E3D20E26E30
:100C7600280EE66E040EE66E3CC0E1FF3DC0E2FFC4
:100C8600C80EE66E27D0020E5B6E010E3C24E16EA6
:100C9600000E3D20E26EE66A3CC0E1FF3DC0E2FF89
:100CA600C80EE66E010E5924E16E000E5A20E26E61
:100CB600080EE66E020E5924E16E000E5A20E26E10
:100CC600280EE66E040EE66E59C0E1FF5AC0E2FF3A
:060CD600C80EE66E1200DC
:100CDC00010E00016325E96E000E6421EA6EEECF71
:100CEC0000F000C002F0000E2B5C02E102502A5C06
:100CFC0003E22AC002F00AD002502A5C006E000EF9
:100D0C002B58016E00C02AF001C02BF0036A025070
:100D1C00035C1CE2280EE96E040EEA6E0350E92611
:100D2C00D8B0EA2AEECF00F027C0E1FF28C0E2FFDE
:100D3C0000C0E6FF010E2724006E000E2820016E75
:100D4C0000C027F001C028F0032AE1D7000E006E86
:100D5C002B50005C02E12A50000828E2010E5924B5
:100D6C00E16E000E5A20E26E080EE66E020E592459
:100D7C00E16E000E5A20E26E280EE66E040EE66E50
:100D8C0063C0E9FF64C0EAFFEECF00F000BC07D0FF
:100D9C0059C0E1FF5AC0E2FFC80EE66E06D059C03A
:100DAC00E1FF5AC0E2FF880EE66E19D0010E5924FD
:100DBC00E16E000E5A20E26E080EE66E020E592409
:100DCC00E16E000E5A20E26E200EE66E040EE66E08
:100DDC0059C0E1FF5AC0E2FF840EE66E299E120054
:100DEC005B50020A02E174DF1ED096DE5750000AF7
:100DFC0019E1010E5924E16E000E5A20E26E080E24
:100E0C00E66E020E5924E16E000E5A20E26E200EA0
:100E1C00E66E040EE66E59C0E1FF5AC0E2FF8C0E7E
:080E2C00E66E01D0576A1200C6
:100E34003CC0E9FF3DC0EAFFEECF00F0000E00BC6D
:100E4400010E0001776F040E3C18006E00C03CF0E8
:100E54004A50080A0AE122C46EFF6E50000803E2F9
:100E6400100E4A6E02D0040E4A6E5B50010A2CE149
:100E7400020E3C24E16E000E3D20E26E280E006E50
:100E8400040E016E00C0E6FF01C0E6FFD4EC02F0E0
:100E94005850020A07E13CC0E1FF3DC0E2FF840E66
:100EA400E66E11D000017751000A07E13CC0E1FF72
:100EB4003DC0E2FFC80EE66E06D03CC0E1FF3DC077
:0C0EC400E2FF880EE66E01D02BDE12006B
:100ED00000017151000A12E070C000F0000E016EB6
:100EE0000036009001363C0E0024E96E000E012011
:100EF000EA6EEECF04F0EECF05F011D070C000F036
:100F0000000E016E003600900136510E0024E96E8D
:100F1000000E0120EA6EEECF04F0EECF05F0020ED7
:100F20000424E16E000E0520E26E72C0E6FF73C07D
:100F3000E6FF010E0424E16E000E0520E26E74C08F
:100F4000E6FF04C0E9FF05C0EAFFEECF00F004C0F1
:100F5000E1FF05C0E2FF400E0014E66E04C0E9FFA9
:100F600005C0EAFFEECF00F004C0E1FF05C0E2FFDC
:100F7000880E0010E66E7151000A1BE070C000F090
:100F8000000E016E0036009001363C0E0024026E09
:100F9000000E0120036E02C0E9FF03C0EAFF040E49
:100FA000EE18006E02C0E1FF03C0E2FF00C0E6FFE2
:100FB0001AD070C000F0000E016E003600900136AD
:100FC000510E0024026E000E0120036E02C0E9FFE4
:100FD00003C0EAFF040EEE18006E02C0E1FF03C07A
:100FE000E2FF00C0E6FF04C000F005C001F01200FF
:100FF000000E0001711902E1000E701902E1016A90
:1010000009D070C0E9FF71C0EAFFEECF00F0016ABD
:0A10100000BE012A01C000F012002A
:0E101A00160E6F6E9F0E6B6E7B0E696E1200CF
:10102800380E436E160E446E000E456ED60E336EA5
:10103800160E346E000E356E610E366E160E376E55
:10104800000E386EA40E396E160E3A6E000E3B6E08
:02105800120084
:0A105A00D08EA28AA08AF28E120046
:1010640070C002F071C003F073C000F074C001F0EE
:10107400010E0001735F000E745B0050011009E063
:1010840002C0E1FF03C0E2FF72C0E6FF024A032A86
:04109400EBD7120084
:101098003CC0E9FF3DC0EAFFEECF00F000AE05D04E
:1010A8003CC0E1FF3DC0E2FFE66A586A5B6A4F6AEE
:1010B800506A4E6AC0DC030E0001786F000E796F2B
:1010C8007A6B7B6B7C6B7D6B92EC02F038DD1200E7
:0410D800A19A1200C7
:1010DC00FD0E5C14016E026AFF0E0216000E021861
:1010EC0002E1000E01186CE17E0E5C14016E01C071
:1010FC0003F00332039E03C000F0000E016E0036B5
:10110C0000900136003600900136000E0024026E6D
:10111C00040E0120036E02C063F003C064F002C031
:10112C0059F003C05AF0040E5918006E00C059F063
:10113C0002C0E9FF03C0EAFFEECF00F000C001F0EF
:10114C003C0E01160132019E0132019E01500D0A26
:10115C0035E1020E00016325E96E000E6421EA6E92
:10116C00EECF01F0EECF02F00250040A02E1280E9D
:10117C00011822E1020E6325E16E000E6421E26E7D
:10118C00200EE66E040EE66E766B080E765D14E2AB
:10119C00200EE16E040EE26E7651E126D8B0E22A02
:1011AC00280EE96E040EEA6E7651E926D8B0EA2ACA
:1011BC00EECFE6FF762BE9D769DF01D011DE0DD03B
:1011CC00FD0E5C14016E026AFF0E0216000E021870
:0C11DC0002E1040E011801E127DE120000
:1011E8004A50000A0AE16D6A696A13DF32DF6DB698
:0C11F80002D06D86FCD7010E4A6E12007A
:1012040011DF406A416A556A566A6A6A686A03DF8E
:101214006D8C6E6A710E0001706F0F0E716F726BC0
:10122400010E736F000E746F1BDF6D9C6B6B080EE9
:101234006B5D16E26BC000F0000E016E003600908C
:101244000136003600900136000E0024E16E040ED3
:101254000120E26EE66AE66AE66AE66A6B2BE7D785
:10126400160E706E68A603D0F70E6816FBD74E6A8A
:10127400296A2A6A2B6A6D98080E3C6E040E3D6E2C
:06128400306A4A6A120004
:10128A00200E4A5C03E36DB201D002D0006A23D07B
:10129A0040C070F041C071F0A6DE00521BE1010EA1
:1012AA004024E96E000E4120EA6EEECF00F000C045
:1012BA006FF06EC070F0716B6BC072F06CC073F03F
:1012CA006DC074F000DE00C040F001C041F06FC094
:0812DA0000F001D0006A1200CF
:1012E200A2DE406A416A556A566A6A6A686A94DE90
:1012F2006D8C6E6A710E0001786F0F0E796F7A6BCA
:10130200010E7B6F000E7C6F78EC02F06D9C766BA9
:10131200080E765D16E276C000F0000E016E003611
:1013220000900136003600900136000E0024E16E76
:10133200040E0120E26EE66AE66AE66AE66A762B47
:10134200E7D7160E706E68A603D0F70E6816FBD7A5
:101352004E6A296A2A6A2B6A6D98080E3C6E040E40
:081362003D6E306A4A6A120078
:10136A00740E0001786F000E796F7A6B7B6B7C6B61
:10137A007D6B92EC02F06D92699468A403D0FB0E27
:06138A006816FBD71200FB
:1013900070A019D063C0E9FF64C0EAFFEECF01F08E
:1013A0000150800A0FE13CC0E9FF3DC0EAFFEECFEB
:1013B00001F00150840A06E163C0E1FF64C0E2FF6E
:0C13C0008C0EE66E7090DF0E68161200B6
:1013CC006984EF0E68166D82750E0001786F000E41
:1013DC00796F7A6B7B6B7C6B7D6B92EC02F01200FD
:1013EC00010E246E67C031F068C032F069C025F080
:1013FC006AC026F001DF010E016E0150010A01E105
:04140C00EDDE1200FF
:101410000900F5CFE6FF0006FBE10106F9E1120045
:10142000000167517A0804E3610E675DD8B0679BDD
:0614300067C000F012008D
:101436004A50010A07E16DBA05D0686A6980698871
:10144600020E4A6E68A405D069A403D0FB0E681686
:1014560089DF6DA202D03DDE78D068A018D069A0E1
:1014660016D03CDF040E4A6E200E0401026F040EF5
:10147600036F080E016F000E0015006E00C000F429
:101486008C0E0011006E00C000F4FE0E681668A8EF
:1014960005D069A803D097DFEF0E681668AC11D0A7
:1014A60069AC0FD0730E0001786F000E796F7A6BFE
:1014B6007B6B010E7C6F000E7D6F92EC02F0BF0E0F
:1014C600681668AA03D069AA01D05FDF68A210D0A7
:1014D60069A20ED0FF0E0001786F3F0E796F7A6B0E
:1014E6007B6B010E7C6F000E7D6F92EC02F06A6AD8
:1014F600040E4A5C02E2EDDD28D069A625D0000183
:10150600756B040E755D20E268A61AD06CCF5CF090
:10151600F70E6816780E5C14016E0150000A02E19F
:10152600DADD0DD0720E0001786F000E796F5C0E59
:101536007A6F000E7B6F7C6B7D6B92EC02F001D0B4
:0C15460003D00001752BDDD7C4DD1200BE
:1015520031C06BF032C06CF0400E00016D6F010EB5
:061562006E6F92DE120024
:10156800236A936A816A0F0EC16E070EB46E000E6D
:101578000001676F050E686F400E696F050E6A6F90
:1015880031DF236AE2DF005201E1FCD7426A040E30
:10159800425C14E2460EE16E000EE26E4250E12615
:1015A800D8B0E22A000EE96E050EEA6E4250E9262E
:1015B800D8B0EA2AEECFE6FF422AE9D7040E235C28
:1015C80018E2460E0001656F000E666F235065270E
:1015D800D8B0662B65C0E9FF66C0EAFFEECF67F0BA
:1015E8001BDF65C0E1FF66C0E2FF00C0E6FF232AFB
:1015F800E5D74650550A09E14750500A06E181509F
:10160800010F006E00C081FF11D04650440A0EE160
:1016180047504F0A0BE14850570A08E149504E0A13
:1016280005E18104006E00C081FF00D0AAD7FFD772
:1016380009022900010100803209040000020300A8
:101648000000092101010001222100070581034052
:0916580000010705010340000137
:1016610022034D0069006B0072006F0065006C0081
:1016710065006B00740072006F006E0069006B0002
:02168100610006
:101683000600FF0901A10119012940150026FF00E9
:10169300750895408102190129407508954091020A
:0116A300C086
:1016A4002003550053004200200048004900440034
:1016B40020004C0069006200720061007200790031
:1016C40012010002000000083412010001000102AE
:0216D400000113
:0416D60004030904FC
:020000040030CA
:0E000000210C3F1EFF8381FF0FC00FE00F4059
:00000001FF
